:020000040800F2
:1000000000500020890F00088105000883050008C2
:100010008505000887050008890500080000000024
:100020000000000000000000000000008B05000838
:100030008D050008000000008F05000891050008EC
:10004000D10F0008D10F0008D10F0008D10F000810
:10005000D10F0008D10F0008D10F0008D10F000800
:10006000D10F0008D10F0008D10F0008D10F0008F0
:10007000D10F0008D10F0008D10F0008D10F0008E0
:10008000D10F0008D10F0008D10F0008D10F0008D0
:10009000D10F0008D10F0008D10F0008D10F0008C0
:1000A000D10F0008D10F0008D10F0008D10F0008B0
:1000B000D10F0008D10F0008D10F0008D10F0008A0
:1000C000D10F0008D10F0008D10F0008D10F000890
:1000D000D10F0008D10F0008D10F0008D10F000880
:1000E000D10F0008D10F0008D10F00080000000058
:1000F0000000000000000000000000000000000000
:0C01000000000000000000005FF808F1A3
:10010C0010B5054C237833B9044B13B10448AFF345
:10011C0000800123237010BD10000020000000009F
:10012C002C10000808B5034B1BB103490348AFF36F
:10013C00008008BD00000000140000202C100008F6
:10014C0010B582B001900A4B5C6800F089FD094B38
:10015C00A3FB00239B0C019A02FB03F30193044BBA
:10016C005B681B1B019A9342F9D302B010BD00BF10
:10017C00001000E083DE1B432DE9F04188B0002421
:10018C000494059406940794304B9A6942F010023B
:10019C009A619A6902F010020092009A9A6942F0F0
:1001AC0020029A619A6902F020020192019A9A69DE
:1001BC0042F004029A619A6902F004020292029AD5
:1001CC009A6942F008029A619B6903F00803039351
:1001DC00039B1F4F22464FF40051384600F05BFE44
:1001EC00DFF8708022464FF47051404600F053FE09
:1001FC004FF40053049301250595069402260796A7
:10020C0004A9384600F032FD122304930594069598
:10021C00A7F5006704A9384600F028FD43F6034310
:10022C00049305950694079604A9404600F01EFD1C
:10023C004FF44063049305950694079604A9384639
:10024C0000F014FD08B0BDE8F08100BF00100240C2
:10025C0000100140000C0140F8B5002777E03D4C40
:10026C0000224FF48061204600F015FE01224FF46D
:10027C000061204600F00FFE374D2868FFF760FF45
:10028C0000224FF48051204600F005FE01224FF46D
:10029C000051204600F0FFFD2868FFF751FF0122B6
:1002AC004FF48061204600F0F6FD00224FF400610F
:1002BC00204600F0F0FD2868FFF742FF01224FF4C2
:1002CC008051204600F0E7FD00224FF400512046FB
:1002DC0000F0E1FD2868FFF733FF002201212046E2
:1002EC0000F0D9FD01220221204600F0D4FD28683F
:1002FC00FFF726FF194E00224FF48061304600F0C4
:10030C00CAFD01224FF40061304600F0C4FD28689C
:10031C00FFF716FF01221146204600F0BCFD00221B
:10032C000221204600F0B7FD2868FFF709FF0122E3
:10033C004FF48061304600F0AEFD00224FF40061B6
:10034C00304600F0A8FD2868FFF7FAFE0137092FA8
:10035C0085DDF8BD000C01400000002000080140C4
:10036C00F8B5002777E03D4C01224FF48051204630
:10037C0000F091FD00224FF40051204600F08BFD5F
:10038C00374D2868FFF7DCFE01224FF480612046D0
:10039C0000F081FD00224FF40061204600F07BFD4F
:1003AC002868FFF7CDFE00224FF48051204600F064
:1003BC0072FD01224FF40051204600F06CFD2868BC
:1003CC00FFF7BEFE00224FF48061204600F063FD73
:1003DC0001224FF40061204600F05DFD2868FFF714
:1003EC00AFFE204E01224FF48061304600F053FDE9
:1003FC0000224FF40061304600F04DFD2868FFF7F5
:10040C009FFE01221146204600F045FD00220221EC
:10041C00204600F040FD2868FFF792FE00224FF4C2
:10042C008061304600F037FD01224FF40061304608
:10043C0000F031FD2868FFF783FE002201212046E1
:10044C0000F029FD01220221204600F024FD28683D
:10045C00FFF776FE0137092F85DDF8BD000C014052
:10046C00000000200008014010B50D4C00224FF494
:10047C008061204600F00FFD00224FF40061204601
:10048C0000F009FD00224FF48051204600F003FDDE
:10049C0000224FF40051204600F0FDFC10BD00BFBF
:1004AC00000C014072B6FEE700B591B02822002185
:1004BC0006A800F088FD0023019302930393049394
:1004CC000593012206924FF4803307930A9202227D
:1004DC000D920E934FF4E0130F9306A800F0D8F88A
:1004EC0080B90F23019302210291002303934FF44F
:1004FC0080620492059301A800F0FCFA20B911B0B7
:10050C005DF804FBFFF7CEFFFFF7CCFF38B500F02A
:10051C0085F8FFF7C9FFFFF72FFE07E0FFF79CFEFA
:10052C0001224FF40051114800F0B5FC104D02218E
:10053C00284600F0A9FC04461021284600F0A4FC33
:10054C00002CEBD040B9FFF70BFF01224FF4005108
:10055C00064800F0A0FCE9E7FFF786FF00224FF405
:10056C000051024800F097FCE0E700BF001001408A
:10057C0000080140FEE7FEE7FEE7FEE7FEE77047F6
:10058C007047704708B500F05BF808BD82B00E4BA1
:10059C009A6942F001029A619A6902F00102009292
:1005AC00009ADA6942F08052DA61DB6903F0805319
:1005BC000193019B054A536823F0E06343F00073F9
:1005CC00536002B0704700BF0010024000000140B1
:1005DC0010B504460E4B1A784FF47A73B3FBF2F352
:1005EC000C4A1068B0FBF3F000F0B2FC68B90F2CA9
:1005FC0001D901200AE0002221464FF0FF3000F023
:10060C0097FC054B1C60002000E0012010BD00BFD2
:10061C00040000200C0000200800002008B5074A48
:10062C00136843F010031360032000F06FFC0F20DD
:10063C00FFF7CEFFFFF7AAFF002008BD0020024005
:10064C00034A1168034B1B780B441360704700BFBF
:10065C002C00002004000020014B1868704700BFDC
:10066C002C00002082B0084B1B68084AA2FB032315
:10067C005B0A00FB03F3019300BF019B5A1E01921E
:10068C00002BF9D102B070470C000020D34D621042
:10069C00002800F0F18170B582B00446036813F0B5
:1006AC00010F2CD0994B5B6803F00C03042B1DD06D
:1006BC00964B5B6803F00C03082B12D06368B3F500
:1006CC00803F41D0002B55D103F1804303F5043317
:1006DC001A6822F480321A601A6822F480221A6096
:1006EC0037E08A4B5B6813F4803FE7D0874B1B687D
:1006FC0013F4003F03D06368002B00F0BF81236824
:10070C0013F0020F75D0814B5B6813F00C0F5FD0A8
:10071C007E4B5B6803F00C03082B54D02369002B31
:10072C0000F08A807A4B01221A60FFF795FF05468C
:10073C00764B1B6813F0020F75D1FFF78DFF401B32
:10074C000228F5D903209EE1704A136843F48033E4
:10075C001360636843B3FFF77FFF05466B4B1B6861
:10076C0013F4003FCBD1FFF777FF401B6428F5D97A
:10077C00032088E1B3F5A02F09D0644B1A6822F44A
:10078C0080321A601A6822F480221A60E1E703F1C1
:10079C008043A3F53C331A6842F480221A601A682D
:1007AC0042F480321A60D4E7FFF756FF0546574BE8
:1007BC001B6813F4003FA2D0FFF74EFF401B6428C8
:1007CC00F5D903205FE1514B5B6813F4803FA5D151
:1007DC004E4B1B6813F0020F03D02369012B40F022
:1007EC004F814A4A136823F0F803616943EAC10355
:1007FC001360236813F0080F33D0A369002B5CD06F
:10080C00434B0122C3F88024FFF726FF05463F4BDC
:10081C005B6A13F0020F21D1FFF71EFF401B022869
:10082C00F5D903202FE1394A136823F0F8036169E5
:10083C0043EAC1031360DCE7354B00221A60FFF773
:10084C000BFF0546314B1B6813F0020FD1D0FFF79D
:10085C0003FF401B0228F5D9032014E10120FFF708
:10086C0001FF236813F0040F00F09680274BDB691F
:10087C0013F0805F34D1254BDA6942F08052DA6193
:10088C00DB6903F080530193019B0125214B1B680D
:10089C0013F4807F26D0E368012B3DD0002B53D17D
:1008AC0003F1804303F504331A6A22F001021A6241
:1008BC001A6A22F004021A6233E0154B0022C3F8C4
:1008CC008024FFF7C9FE0546104B5B6A13F0020F3C
:1008DC00C7D0FFF7C1FE401B0228F5D90320D2E098
:1008EC000025D3E70B4A136843F480731360FFF7BA
:1008FC00B3FE0646074B1B6813F4807FCBD1FFF782
:10090C00ABFE801B6428F5D90320BCE0001002402C
:10091C0000004242007000405F4A136A43F001033A
:10092C001362E36833B3FFF797FE06465A4B1B6A14
:10093C0013F0020F2FD1FFF78FFE801B41F288338B
:10094C009842F3D903209EE0052B09D0524B1A6A2A
:10095C0022F001021A621A6A22F004021A62E0E71B
:10096C004D4B1A6A42F004021A621A6A42F00102F2
:10097C001A62D6E7FFF770FE0646474B1B6A13F068
:10098C00020F08D0FFF768FE801B41F288339842B3
:10099C00F3D9032077E0E5B9E369002B72D03E4A26
:1009AC00526802F00C02082A56D0022B17D03B4B8F
:1009BC0000221A66FFF750FE0446374B1B6813F0F3
:1009CC00007F47D0FFF748FE001B0228F5D9032013
:1009DC0059E0314AD36923F08053D361DCE72F4BC4
:1009EC0000221A66FFF738FE05462B4B1B6813F0E6
:1009FC00007F06D0FFF730FE401B0228F5D90320FC
:100A0C0041E0236AB3F5803F1AD023494B6823F4A5
:100A1C007413226A606A024313434B601F4B01221A
:100A2C001A66FFF719FE04461B4B1B6813F0007F78
:100A3C000ED1FFF711FE001B0228F5D9032022E08E
:100A4C00154A536823F40033A1680B435360DCE769
:100A5C00002018E0002016E0012B16D00E4B5B682E
:100A6C0003F48031226A914211D103F47013626A4B
:100A7C0093420ED1002006E001207047012002E0D5
:100A8C00012000E0002002B070BD0120FBE7012036
:100A9C00F9E70120F7E700BF0010024000004242D6
:100AAC000F4B5B6803F00C02082A01D00D4870470D
:100ABC00C3F383420C49885C13F4803F0BD0084B82
:100ACC005B68C3F34043094AD35C064A02FB00F05F
:100ADC00B0FBF3F07047064B03FB00F0704700BF10
:100AEC000010024000127A00481000084410000860
:100AFC0000093D00002800F0A08070B50D460446AA
:100B0C00524B1B6803F007038B420BD24F4A1368FE
:100B1C0023F007030B431360136803F007038B42A6
:100B2C0040F08D80236813F0020F17D013F0040FE0
:100B3C0004D0474A536843F4E0635360236813F0CE
:100B4C00080F04D0424A536843F460535360404A40
:100B5C00536823F0F003A1680B435360236813F030
:100B6C00010F31D06368012B20D0022B25D0384ADD
:100B7C00126812F0020F64D035494A6822F0030261
:100B8C0013434B60FFF768FD0646314B5B6803F07F
:100B9C000C036268B3EB820F16D0FFF75DFD801B70
:100BAC0041F288339842F0D9032045E0284A126874
:100BBC0012F4003FE0D101203EE0254A126812F009
:100BCC00007FD9D1012037E0204B1B6803F00703CD
:100BDC00AB420AD91D4A136823F007032B43136059
:100BEC00136803F00703AB422DD1236813F0040FF5
:100BFC0006D0174A536823F4E063E1680B43536053
:100C0C00236813F0080F07D0114A536823F460537C
:100C1C00216943EAC1035360FFF742FF0C4B5B6849
:100C2C00C3F303130B4AD35CD8400B4B18600B4B2C
:100C3C001868FFF7CDFC002070BD01207047012023
:100C4C00FAE70120F8E70120F6E700BF0020024098
:100C5C0000100240581000080C0000200800002072
:100C6C00014B1868704700BF0C00002070B582B0B3
:100C7C000024A446A2E07E4DAB4210D007D97D4D96
:100C8C00AB420CD005F58035AB4208D013E0A5F58E
:100C9C008015AB4203D005F57025AB4207D18B68AC
:100CAC00002B55D0012B4ED04261082403E0A5F552
:100CBC008015AB42F3D0BEF1FF0F4BD806464FEA7E
:100CCC008C0233680F25954023EA050304FA02F2DF
:100CDC00134333604B6813F0805F6DD0664B9A6999
:100CEC0042F001029A619B6903F001030193019B9D
:100CFC004FEA9C02951C614B53F825600CF00305E0
:100D0C00AD000F23AB4026EA03065D4B984228D07A
:100D1C0003F58063984200F08D8003F58063984260
:100D2C0000F08A8003F58063984218D0042319E000
:100D3C00CC68C0E7CC680434BDE7CC680834BAE7AB
:100D4C00CC680C34B7E702610824B4E70024B2E79E
:100D5C000424B0E7061DACF108029200B1E70323AE
:100D6C0000E00023AB4033430232444D45F82230BF
:100D7C004B6813F4801F61D0424A936843EA0E0318
:100D8C0093604B6813F4001F5ED03E4AD36843EA6D
:100D9C000E03D3604B6813F4003F5BD0394A5368A1
:100DAC0043EA0E0353604B6813F4803F58D0354A26
:100DBC00136843EA0E0313600CF1010C0B6833FA51
:100DCC000CF253D0012202FA0CF203EA020E32EAC0
:100DDC000303F1D14B68122B3FF64DAF122B3FF6AC
:100DEC006AAF01A555F823F0AB0C00083D0D0008C7
:100DFC00470D0008590D0008C30C0008C30C00086F
:100E0C00C30C0008C30C0008C30C0008C30C00087A
:100E1C00C30C0008C30C0008C30C0008C30C00086A
:100E2C00C30C0008C30C0008C30C0008410D0008DB
:100E3C004D0D0008012395E7022393E7114A9368AF
:100E4C0023EA0E0393609CE70E4AD36823EA0E0351
:100E5C00D3609FE70B4A536823EA0E035360A2E763
:100E6C00084A136823EA0E031360A5E702B070BDAD
:100E7C000000221000003110001002400000014060
:100E8C0000080140000401408368194201D0012090
:100E9C007047002070470AB1016170470904016175
:100EAC0070470000002808DB0901C9B200F160405E
:100EBC0000F5614080F80013704700F00F00090145
:100ECC00C9B2014B1954704714ED00E000B500F0A5
:100EDC000700C0F1070CBCF1040F28BF4FF0040C45
:100EEC00031D062B0FD9C31E4FF0FF3E0EFA0CF05C
:100EFC0021EA000199400EFA03FE22EA0E0241EAB1
:100F0C0002005DF804FB0023EEE70000074AD368FB
:100F1C0023F4E0631B041B0C000200F4E0600343A9
:100F2C0043F0BF6343F40033D360704700ED00E03F
:100F3C0010B50446054BD868C0F30220FFF7C6FF76
:100F4C0001462046FFF7AEFF10BD00BF00ED00E0EC
:100F5C000138B0F1807F0BD24FF0E0235861054A85
:100F6C00F02182F823100020986107221A61704743
:100F7C000120704700ED00E070470000FFF7FCFF18
:100F8C000B480C490C4A002302E0D458C4500433DB
:100F9C00C4188C42F9D3094A094C002301E01360B0
:100FAC000432A242FBD300F017F8FFF7AFFA7047F8
:100FBC00000000201000002070100008100000201D
:100FCC0030000020FEE703460244934200D17047F4
:100FDC0003F8011BF9E7000070B500260C4D0D4C11
:100FEC00641BA410A64209D100F01AF800260A4D81
:100FFC000A4C641BA410A64205D170BD55F8043BE5
:10100C0098470136EEE755F8043B98470136F2E76E
:10101C006810000868100008681000086C100008C0
:10102C00F8B500BFF8BC08BC9E467047F8B500BFC9
:08103C00F8BC08BC9E46704799
:101044000102000002030405060708090A0B0C0D3F
:101054000E0F101000000000000000000102030445
:04106400060708096A
:04106800310100084A
:04106C000D0100086A
:10107000DC050000010000001000000000127A00F2
:0400000508000F8957
:00000001FF
